:100000000C9434000C943E000C943E000C943E0082
:100010000C943E000C943E000C943E000C943E0068
:100020000C943E000C943E000C943E000C943E0058
:100030000C943E000C943E000C943E000C943E0048
:100040000C943E000C943E000C943E000C943E0038
:100050000C943E000C943E000C943E000C943E0028
:100060000C943E000C943E0011241FBECFEFD8E04C
:10007000DEBFCDBF0E9459000C945B000C940000C1
:10008000389A18B8C8E8D0E042E050E0A0E8B0E004
:10009000E1E8F0E03FE022E091E0598348831C92E0
:1000A0003083B19BFECF108226BB88B1892788B9E7
:0A00B000F4CF0E944000F894FFCF47
:00000001FF
