:100000000C9434000C9446000C9446000C9446006A
:100010000C9446000C9446000C9446000C94460048
:100020000C9446000C9446000C9446000C94460038
:100030000C9446000C9446000C9446000C94460028
:100040000C9446000C9446000C9446000C94460018
:100050000C9446000C9446000C9446000C94460008
:100060000C9446000C94460011241FBECFEFD8E03C
:10007000DEBFCDBF21E0A0E0B1E001C01D92A03005
:10008000B207E1F70E9448000C948F000C94000026
:10009000CF93DF93CDB7DEB70E944F00FDCFCF9354
:1000A000DF93CDB7DEB784E290E024E230E0F901DF
:1000B00020812E7FFC01208385E290E025E230E064
:1000C000F90120812160FC01208383E290E0FC01A2
:1000D0008081882F90E081709927892B99F08AE29E
:1000E00090E02AE230E0F90120812460FC012083C5
:1000F0008BE290E02BE230E0F90120812460FC01EA
:10010000208309C08BE290E02BE230E0F9012081EE
:100110002B7FFC0120830000DF91CF910895F8949C
:02012000FFCF0F
:00000001FF
