S01200006C6162335F7365635F632E7372656354
S11300000C9434000C9446000C9448000C94460064
S11300100C9446000C9446000C9446000C94460044
S11300200C9446000C9446000C9446000C94610019
S11300300C9446000C9446000C9446000C94460024
S11300400C9446000C9446000C9446000C94460014
S11300500C9446000C9446000C9446000C94460004
S11300600C9446000C94460011241FBECFEFD8E038
S1130070DEBFCDBF21E0A0E0B1E001C01D92A430FD
S1130080B207E1F70E948B000C94CC010C940000A1
S11300901F920F920FB60F9211248F939F9380910A
S11300A00001909101010196909301018093000158
S11300B015B818B89F918F910F900FBE0F901F9095
S11300C018951F920F920FB60F9211248F939F933E
S11300D081E090E090930301809302019F918F91BE
S11300E00F900FBE0F901F90189584E39CE090939F
S11300F0890080938800109280008DE080938100B5
S11301008091020190910301892BD1F31092030194
S11301101092020108958FEF84B987B982E0809329
S11301206F009CE0909369008DBB78940F2EF1E1F1
S11301307F2EF02D0F2EF8E8EF2EF12CF02D0F2E40
S1130140F8E0AF2EFDE3BF2EF02D650100E810E0CE
S1130150C1E8D0E00F2EFDE08F2EF02D982C0F2E4D
S1130160F1E26F2EF02D0F2EF9E05F2EF02D80912D
S113017000019091010180FFFACF809100019091DC
S1130180010180FD07C015B818B810920101109242
S11301900001EDCF75B8449A25E030E0F701D18233
S11301A0C082F8011082988206C08091000190916B
S11301B0010180FF06C08091020190910301892B07
S11301C0A1F310920301109202012150310931F779
S11301D0809100019091010180FD07C015B818B805
S11301E01092010110920001C2CF449865B8449A5C
S11301F0F701B182A082F8011082888206C0809142
S113020000019091010180FF06C08091020190914C
S11302100301892BA1F31092030110920201809132
S113022000019091010180FD07C015B818B8109223
S11302300101109200019BCF449855B8449AF701EC
S1130240B182A082F8011082888206C080910001E8
S11302509091010180FF06C08091020190910301F9
S1130260892BA1F3109203011092020180910001E5
S11302709091010180FD03C015B818B878CF449857
S113028085B8449AF701B182A082F801108288826D
S113029006C0809100019091010180FF06C0809109
S11302A0020190910301892BA1F310920301109292
S11302B00201809100019091010180FD03C015B8F5
S11302C018B855CF44988AE085B9459A25E030E0BE
S11302D0F701D182C082F8011082988206C0809111
S11302E000019091010180FF06C08091020190916C
S11302F00301892BA1F310920301109202012150F2
S1130300310931F7809100019091010180FD03C012
S113031015B818B82CCF8CE085B9459A0E947500A1
S113032088B16894442445F8842588B90E947500EE
S113033088B1842588B90E94750088B1482648B8D8
S11303400E94750055B84598449A0E9475008091A2
S113035000019091010180FD03C015B818B807CFC2
S1130360449889E285B9449AF701B182A082F801E0
S11303701082888206C0809100019091010180FF63
S113038006C08091020190910301892BA1F3109280
S10F0390030110920201EBCEF894FFCFA1
S9030000FC
