:100000000C9434000C9446000C9446000C9446006A
:100010000C9446000C9446000C9446000C94460048
:100020000C9446000C9446000C9446000C94460038
:100030000C9446000C9446000C9446000C94460028
:100040000C9446000C9446000C9488000C945400C8
:100050000C9446000C9446000C9446000C94460008
:100060000C9446000C94460011241FBECFEFD8E03C
:10007000DEBFCDBF21E0A0E0B1E001C01D92A630FF
:10008000B207E1F70E94AE000C94B2000C9400009D
:1000900088EB8093C10086E88093C2001092C5006F
:1000A00087E68093C40008951F920F920FB60F92B7
:1000B00011248F939F9380910201811103C081E6E7
:1000C0008093C600809102018130D9F480910001B3
:1000D000909101010A9770F4809103018093C6000A
:1000E000809100019091010101969093010180930C
:1000F000000107C082E0809302011092010110927A
:1001000000019F918F910F900FBE0F901F90189537
:100110001F920F920FB60F9211248F939F9380918D
:10012000C6008093030190910201911106C0809353
:10013000050181E0809302010AC0923041F480936E
:10014000040190910501891302C0109202019F9150
:100150008F910F900FBE0F901F9018950E9448002E
:080160007894FFCFF894FFCF63
:00000001FF
