S00C00006C6162332E73726563B6
S11300000C9434000C945C000C9481000C94460015
S11300100C9446000C9446000C9446000C94460044
S11300200C9446000C9446000C9446000C94C900B1
S11300300C9446000C9446000C9448000C94460022
S11300400C9446000C9446000C9446000C94460014
S11300500C9446000C9446000C9446000C94460004
S11300600C9446000C94460011241FBECFEFD8E038
S1130070DEBFCDBF21E0A0E0B1E001C01D92A630FB
S1130080B207E1F70E944D010C9454010C94000056
S11300901F920F920FB60F9211248F939F9398B1D2
S11300A081E0892788B982E087BD9F918F910F9065
S11300B00FBE0F901F9018951F920F920FB60F92BC
S11300C011248F939F9380910401909105010196CF
S11300D0909305018093040180910401909105019E
S11300E0039741F498B181E0892788B910920501FA
S11300F0109204019F918F910F900FBE0F901F904B
S113010018951F920F920FB60F9211248F939F93FD
S113011080910401909105010196909305018093CB
S113012004018091040190910501817090789923D4
S113013024F401978E6F9F6F0196019719F415B8F7
S113014018B803C08FEF85B988B99F918F910F902C
S11301500FBE0F901F90189588E09DE3909389003F
S113016080938800109280008DE08093810006C007
S1130170809100019091010180FF0AC080910201E9
S113018090910301892BA1F31092030110920201B3
S113019008951F920F920FB60F9211248F939F937D
S11301A081E090E090930301809302019F918F91ED
S11301B00F900FBE0F901F9018950E94AC000E94E4
S11301C0AC000E94AC000E94AC000E94AC000895F8
S11301D083EF8093850088EC8093840010928000E4
S11301E085E080938100B09BFECF1092810081E076
S11301F086BB089578940F2EF1E1CF2EF02D0F2EAB
S1130200F1E2DF2EF02DD9E00F2EFDE0EF2EF02DE0
S11302100F2EFAE0FF2EF02D0CE0C0E219E2C5B873
S1130220449A0E94DD004498D5B8449A0E94AC00D8
S11302304498D5B9449A0E94AC004498E5B8449ACD
S11302400E94AC004498F5B8459A0E94DD0005B9B7
S1130250459A0E94E80088B18C2788B90E94E8007A
S113026088B18C2788B90E94E80088B18C2788B9A6
S11302700E94E800D5B94598449A0E94AC0044987D
S113028015B9449A0E94AC00CACF83E080936900F8
S113029081E08DBB78940E94FA008FEF84B987B90E
S10F02A081E088B90E944501F894FFCF6A
S9030000FC
