:100000000C9434000C9451000C9451000C94510049
:100010000C9451000C9451000C9451000C9451001C
:100020000C9451000C9451000C9451000C9451000C
:100030000C9451000C9451000C9451000C945100FC
:100040000C9451000C9451000C945F000C948700A8
:100050000C9473000C9451000C9451000C945100BA
:100060000C9451000C94510011241FBECFEFD8E026
:10007000DEBFCDBF11E0A0E0B1E0E6EAF1E002C0F2
:1000800005900D92A030B107D9F721E0A0E0B1E0D2
:1000900001C01D92A630B207E1F70E94CC000C947B
:1000A000D1000C94000088E18093C10086E8809321
:1000B000C2001092C50087E68093C40008951F9285
:1000C0000F920FB60F9211248F939F9381E090E0CF
:1000D00090930501809304019F918F910F900FBE23
:1000E0000F901F9018951F920F920FB60F92112428
:1000F0008F939F9381E090E090930301809302019E
:100100009F918F910F900FBE0F901F9018951F9287
:100110000F920FB60F9211248F939F9381E090E07E
:1001200090930101809300019F918F910F900FBEDA
:100130000F901F90189520E030E0E0ECF0E0A6EC86
:10014000B0E091E661E050E0D0E0C0E0211531057B
:1001500099F4808185FFFDCF9C9380818823CCF723
:100160004C912AE030E0808185FFFDCF4C932150F7
:100170003109C9F7262F352F2130310539F7808114
:100180008823ECF72C91762F852F421302C07D2F08
:100190008C2F272F382FDACF78940E9453000E949B
:0601A0009B00F894FFCF64
:00000001FF
